:100000000C9434000C9451000C9451000C94510049
:100010000C9451000C9451000C9451000C9451001C
:100020000C9451000C9451000C9451000C9451000C
:100030000C9451000C94CC000C9451000C94510081
:100040000C9451000C9451000C949E000C9474007C
:100050000C9451000C9451000C9451000C945100DC
:100060000C9451000C94510011241FBECFEFD8E026
:10007000DEBFCDBF11E0A0E0B1E0ECE8F3E002C0EC
:1000800005900D92A432B107D9F721E0A4E2B1E0C6
:1000900001C01D92A93AB207E1F70E9463010C94D6
:1000A000C4010C9400009091A8019F5F9F73209160
:1000B000A7012917E1F3E92FF0E0E959FE4F80830A
:1000C0009093A8018091C10080628093C10008953F
:1000D000CF93DF93EC018991811103C0DF91CF9120
:1000E00008950E945300F7CF1F920F920FB60F9200
:1000F00011248F939F93EF93FF939091A801809188
:10010000A7019817A9F0E091A701EF5FEF73E093C3
:10011000A701F0E0E959FE4F80818093C600FF916E
:10012000EF919F918F910F900FBE0F901F90189598
:100130008091C1008F7D8093C100F1CF1F920F92FB
:100140000FB60F9211242F938F939F93EF93FF93EA
:100150008091C0009091C600E0916601EF5FEF735F
:10016000209165012E17B1F08C71E0936601F0E0EB
:10017000EB5DFE4F908390912401892B80932401A5
:10018000FF91EF919F918F912F910F900FBE0F9044
:100190001F90189582E0EFCF1F920F920FB60F922B
:1001A0001124FF920F931F932F933F934F935F93CD
:1001B0006F937F938F939F93AF93BF93EF93FF932F
:1001C000CF93DF93CDB7DEB72897DEBFCDBF909139
:1001D00066018091650100E011E09817B1F080910F
:1001E00065018F5F8F73E82FF0E0EB5DFE4F0081BC
:1001F000909124018093650110922401892F90E051
:10020000982F8827080F192F111DF02E002309F4AD
:100210003EC0802F0E94530080E091E00E94680061
:1002200011274AE0BE016F5F7F4FC8010E948F0116
:10023000CE0101960E94680082E091E00E94680071
:1002400042E0BE016F5F7F4FC8010E948F01CE0167
:1002500001960E94680088E010E09F2D9170192798
:10026000F6948150D1F787E091E00E9468004AE05F
:10027000BE016F5F7F4F812F90E00E948F01CE0102
:1002800001960E94680081E291E00E946800289631
:100290000FB6F894DEBF0FBECDBFDF91CF91FF91B7
:1002A000EF91BF91AF919F918F917F916F915F91EE
:1002B0004F913F912F911F910F91FF900F900FBE83
:1002C0000F901F9018951092A8011092A7011092FC
:1002D0006601109265011092C50087E68093C40004
:1002E00088E98093C10086E08093C20080918100FC
:1002F0008B7F809381008091810083608093810057
:1003000080916F00816080936F0078948FE091E01E
:100310000E9468008FE091E00E946800FFCFBB2739
:100320004A3031F4992322F4BDE2909581959F4F94
:100330000C949B01BB27FB015527AA27880F991F07
:10034000AA1FA41710F0A41B83955051B9F7A05D04
:10035000AA3308F0A95DA193009779F7B111B19381
:100360001192CB010C94B401DC01FC01672F719157
:100370007723E1F7329704C07C916D93708362918B
:0C038000AE17BF07C8F30895F894FFCF34
:10038C0009000930622000094576656E3A2000505C
:10039C0072696E74206F6E65206C696E652E2E2EE0
:0403AC00200D0A0016
:00000001FF
