:100000000C9434000C9451000C9451000C94510049
:100010000C9451000C9451000C9451000C9451001C
:100020000C9451000C9451000C9451000C9451000C
:100030000C9451000C9451000C9451000C945100FC
:100040000C9451000C9451000C9497000C946D008A
:100050000C9451000C9451000C9451000C945100DC
:100060000C9451000C94510011241FBECFEFD8E026
:10007000DEBFCDBF11E0A0E0B1E0E4ECF2E002C0F1
:1000800005900D92A431B107D9F721E0A4E1B1E0C8
:1000900001C01D92A939B207E1F70E94C5000C9476
:1000A00060010C940000DC012D91211101C0089524
:1000B000909198019F5F9F73809197019817E1F34A
:1000C000E92FF0E0E95AFE4F208390939801909138
:1000D000C10090629093C100E7CF1F920F920FB6BC
:1000E0000F9211248F939F93EF93FF939091980118
:1000F000809197019817A9F0E0919701EF5FEF7356
:10010000E0939701F0E0E95AFE4F80818093C600AA
:10011000FF91EF919F918F910F900FBE0F901F90C5
:1001200018958091C1008F7D8093C100F1CF1F92FF
:100130000F920FB60F9211242F938F939F93EF93EB
:10014000FF938091C0009091C600E0915601EF5F4F
:10015000EF73209155012E17B1F08C71E093560189
:10016000F0E0EB5EFE4F908390911401892B809319
:100170001401FF91EF919F918F912F910F900FBEDE
:100180000F901F90189582E0EFCFCF93DF9300D0B0
:10019000CDB7DEB787B18F7C87B988B1806388B966
:1001A0008091B9008C7F8093B90088E48093B80077
:1001B00010929801109297011092560110925501D9
:1001C0001092C50088E08093C40088E98093C10044
:1001D00086E08093C200789480E091E00E94530012
:1001E00008E010E084EAE82E94E8D92E24E9F22E03
:1001F000E092BC008091BC0087FFFCCF802F880F6D
:100200008093BB00D092BC008091BC0087FFFCCFE4
:100210008091B900887F883191F4F092BC0081E12F
:1002200091E00E94530040E1BE016F5F7F4FC80123
:100230000E942B01CE0101960E94530006C0883215
:1002400061F3F092BC00803451F30F5F1F4F083709
:10025000110571F6FFCFBB274A3031F4992322F400
:10026000BDE2909581959F4F0C943701BB27FB0110
:100270005527AA27880F991FAA1FA41710F0A41B9F
:1002800083955051B9F7A05DAA3308F0A95DA193F9
:10029000009779F7B111B1931192CB010C945001F1
:1002A000DC01FC01672F71917723E1F7329704C0DD
:1002B0007C916D9370836291AE17BF07C8F3089568
:0402C000F894FFCFE0
:1002C4005363616E6E696E67204932432E2E2E2071
:0402D400000D0A000F
:00000001FF
